:0400000023EF00F0FA
:100008005D820E0133AB0BEF00F00DEF00F021EF36
:1000180000F080A612EF00F016EF00F0016A012A46
:1000280017EF00F0016A01460146014680500118A9
:10003800F70B0118806E0E01339B5D9211005BEF88
:0200480012F0B4
:100E000000256420202025643A2025643A202564AA
:100E10000025642025642025642025640025642E97
:100E20002530326400006CEC13F09DEC13F0CBEC39
:100E300013F0C1EC13F05AEC13F0C4EC10F07DEC9D
:100E400013F0000E0001D46F000ED56F040EDA6FA0
:100E5000060ED96F1A0EDB6F030EDC6F070ED86F0C
:100E6000E30ED76F000ED66F000ECF6F010ECE6F60
:100E7000000ED16F010ED06F000ED36F180ED26F1F
:100E800020EEDDF010EEB6F0170EDBCFE3FFE80644
:100E9000FCE2030E0001D715AE6F000ED815AF6F40
:100EA000AE51AF11D8A457EF07F059EF07F06CEF30
:100EB00007F0D7C002F0D8C003F0000E056E640E34
:100EC000046EAEEC11F002500310D8A46AEF07F0E4
:100ED0006CEF07F07FEF07F0D7C002F0D8C003F047
:100EE000010E056E900E046EAEEC11F00250031070
:100EF000D8A47DEF07F07FEF07F086EF07F0000E34
:100F00000001B96F1D0EB86F8BEF07F0000E0001E6
:100F1000B96F1C0EB86F80A690EF07F092EF07F044
:100F200051EF09F08096D42BD451AE6FAF6BCE51F8
:100F3000AE5DCF51AF59D8A0A0EF07F0A2EF07F0F8
:100F400051EF09F0000ED46FFF0EAE6FFF0EAF6FC2
:100F5000D0C0B0F0D1C0B1F0AE51B027AF51B12385
:100F6000D551B26FB36BB051B25DB151B359D8B076
:100F7000BCEF07F0BEEF07F0C1EF07F0D52B51EF44
:100F800009F0FF0EAE6FFF0EAF6FD0C0B0F0D1C052
:100F9000B1F0AE51B027AF51B123D551B26FB36BA1
:100FA000B051B25DB151B359D8A0D9EF07F0DBEF22
:100FB00007F051EF09F0000ED56FFF0EAE6FFF0E78
:100FC000AF6FD2C0B0F0D3C0B1F0AE51B027AF51C7
:100FD000B123DAC0B2F0B36BB2BFB307B051B25DA8
:100FE000B151B359D8B0F7EF07F0F9EF07F0FCEFC4
:100FF00007F0DA2B51EF09F0FF0EAE6FFF0EAF6F67
:10100000D2C0B0F0D3C0B1F0AE51B027AF51B123D0
:10101000DAC0B2F0B36BB2BFB307B051B25DB15139
:10102000B359D8A016EF08F018EF08F051EF09F007
:10103000000EDA6FD951800A7A0FD8B022EF08F08B
:1010400024EF08F04CEF08F0FE0EAE6FFF0EAF6F0E
:10105000DC51B06FB16BD890B037B137AE51B0271B
:10106000AF51B123B60EB025D96E000EB121DA6EA4
:10107000DBC0B4F0B56BB4BFB507DE50B45DDE5075
:10108000B559D8B046EF08F048EF08F04CEF08F03B
:10109000D92BDB2B51EF09F0060ED919D8A453EF49
:1010A00008F055EF08F0BEEF08F0FE0EAE6FFF0E31
:1010B000AF6FDC51B06FB16BD890B037B137AE5174
:1010C000B027AF51B123B60EB025D96E000EB121B5
:1010D000DA6EDBC0B4F0B56BB4BFB507DE50B45DFB
:1010E000DE50B559D8B077EF08F079EF08F0BEEFD1
:1010F00008F0000ED96FDB2B030EDC19D8A483EFA8
:1011000008F085EF08F09BEF08F0DB51800A670FCD
:10111000D8A08DEF08F08FEF08F051EF09F0D6510D
:10112000D8A495EF08F097EF08F051EF09F0010E01
:10113000DA6F51EF09F00A0EDC19D8A4A2EF08F01B
:10114000A4EF08F051EF09F0DB51800A670FD8A037
:10115000ACEF08F0AEEF08F051EF09F0D605D8A4D7
:10116000B4EF08F0B6EF08F051EF09F0DA69D96989
:10117000DB05DB6F000ED66F51EF09F0D951800A05
:101180007A0FD8B0C6EF08F0C8EF08F00AEF09F000
:10119000FE0EAE6FFF0EAF6FDC51B06FB16BD8902B
:1011A000B037B137AE51B027AF51B123B60EB0252D
:1011B000D96E000EB121DA6EDBC0B4F0B56BB4BFEE
:1011C000B507DE50B41907E1DE50B519D8A4EBEF2E
:1011D00008F0EDEF08F00AEF09F0D92B010EDB6FF4
:1011E0000C0EDC61F6EF08F0F8EF08F0FBEF08F00A
:1011F000DC2B51EF09F00C0EDC19D8A402EF09F03A
:1012000004EF09F051EF09F0010EDC6FD74BD82B3A
:1012100051EF09F0060ED919D8A411EF09F013EF18
:1012200009F051EF09F0FE0EAE6FFF0EAF6FDC510B
:10123000B06FB16BD890B037B137AE51B027AF5166
:10124000B123B60EB025D96E000EB121DA6EDBC027
:10125000B4F0B56BB4BFB507DE50B41907E1DE508A
:10126000B519D8A436EF09F038EF09F051EF09F0BD
:10127000000ED96F010EDB6F0C0EDC6142EF09F03E
:1012800044EF09F046EF09F0F8EF08F00C0EDC1916
:10129000D8A44DEF09F04FEF09F051EF09F004EF3A
:1012A00009F0D4C00AF0DAC00BF0D65164EC10F0AB
:1012B000DAC07BF0D5C07CF0D4C07DF0DBC07EF01E
:1012C000DCC07FF0D7C080F0D8C081F0D6C082F0FB
:1012D0000001D951D5EC0EF00001DA51026E036A1B
:1012E00002BE03060FEC11F08DEC13F0DAC006F02D
:1012F0008DEC13F00250E0EC11F049EF07F023EF12
:1013000000F043C0D9FF44C0DAFFDECFF6FFDDCFE7
:10131000F7FF000EF86E0800F550250AD8A493EFE9
:1013200009F095EF09F01CEF0BF043C0D9FF44C062
:10133000DAFFDE2A000EDD22000E0001F86F000E3B
:10134000F76FF7C05BF0F8C05CF0F969FA69000E5E
:10135000546E000E536EF5EF09F05B8043C0D9FF69
:1013600044C0DAFFDE2A000EDD22F5EF09F05B82D1
:10137000AEEF09F05B84AEEF09F05B86AEEF09F0EB
:101380005B88AEEF09F0000E546E010E536EF5EF60
:1013900009F043C0D9FF44C0DAFFDECFF6FFDDCF4E
:1013A000F7FF000EF86E0800F550476E486A485087
:1013B000000AD8B4DEEF09F0C3EF09F04750200A65
:1013C000D8B4BDEF09F0030AD8B4C0EF09F0080A99
:1013D000D8B4BAEF09F0060AD8B4ADEF09F01D0A87
:1013E000D8B4B7EF09F0C3EF09F053505410D8B494
:1013F000FCEF09F0FEEF09F0C9EF09F05BA003EF85
:101400000AF005EF0AF006EF0AF05B9243C0D9FF3D
:1014100044C0DAFFDECFF6FFDDCFF7FF000EF86E37
:101420000800F5502A0AD8A418EF0AF01AEF0AF0BB
:1014300044EF0AF043C0D9FF44C0DAFFDE2A000EB1
:10144000DD2245C0D9FF46C0DAFFDFCF47F0020EEC
:10145000DE26DFCF48F0000EDD2247C0D9FF48C0AE
:10146000DAFFDECFF7F0DDCFF8F00001F8BF3DEF97
:101470000AF03BEF0AF07CEF0AF05B80F76DF81F93
:10148000D8B0F82B7CEF0AF043C0D9FF44C0DAFF94
:10149000DECF09F0DDCF0AF06EEC0DF009C0F7F0F9
:1014A0000AC0F8F05BEF0AF043C0D9FF44C0DAFF8E
:1014B000DE2A000EDD22D00E476EFF0E486E43C0BE
:1014C000D9FF44C0DAFFDECFF6FFDDCFF7FF000E15
:1014D000F86E0800F550496E4A6A47504926485050
:1014E0004A224A5009E10A0E495CD8A07AEF0AF074
:1014F0007CEF0AF054EF0AF043C0D9FF44C0DAFF92
:10150000DECFF6FFDDCFF7FF000EF86E0800F550D6
:10151000640AD8B48EEF0AF090EF0AF0A4EF0AF054
:1015200043C0D9FF44C0DAFFDECFF6FFDDCFF7FFBF
:10153000000EF86E0800F550690AD8A4A2EF0AF070
:10154000A4EF0AF0E4EF0AF043C0D9FF44C0DAFF89
:10155000DE2A000EDD2245C0D9FF46C0DAFFDFCF0C
:1015600047F0020EDE26DFCF48F0000EDD2247C036
:10157000D9FF48C0DAFFDECF4BF0DDCF4CF0000ED4
:101580004CBEFF0E4D6E4E6E4F6E506E516E526ED3
:1015900041C01DF042C01EF04BC01FF04CC020F0F7
:1015A0004DC021F04EC022F04FC023F050C024F0B7
:1015B00051C025F052C026F03AEC0BF01DC041F0AE
:1015C0001EC042F039EF0BF043C0D9FF44C0DAFF30
:1015D000DECFF6FFDDCFF7FF000EF86E0800F55006
:1015E000250AD8A4F6EF0AF0F8EF0AF00FEF0BF097
:1015F00043C0D9FF44C0DAFFDE2A000EDD22000E10
:10160000036E250E026E41C004F042C005F03CECB2
:101610000FF0000E426E010E416E39EF0BF043C029
:10162000D9FF44C0DAFFDE2A000EDD22000E426E32
:10163000000E416E39EF0BF043C0D9FF44C0DAFF12
:10164000DECFF6FFDDCFF7FF000EF86E0800F55095
:10165000026E036A41C004F042C005F03CEC0FF09A
:1016600043C0D9FF44C0DAFFDE2A000EDD2209EFB5
:101670000BF012001FC037F020C038F021C039F045
:1016800022C03AF023C03BF024C03CF025C03DF01E
:1016900026C03EF03EBE4FEF0BF052EF0BF0010EB6
:1016A00053EF0BF0000E356E366A35503610D8B455
:1016B0005CEF0BF05EEF0BF06EEF0BF03E1E3D1E8D
:1016C0003C1E3B1E3A1E391E381E376C000E382257
:1016D00039223A223B223C223D223E220001FABF1F
:1016E00074EF0BF076EF0BF077EF0BF05B92FABF35
:1016F00084EF0BF0FA5106E1F905D8B082EF0BF058
:1017000084EF0BF08AEF0BF0000E326E010E316E9B
:101710008EEF0BF0F9C031F0FAC032F0F7C033F0C1
:10172000F8C034F035503610D8A499EF0BF09BEF89
:101730000BF0A2EF0BF05BA4A0EF0BF0A2EF0BF00D
:10174000A5EF0BF03306D8A03406000E406E1F0E36
:101750003F6E000E01011F6F2AEF0CF03F06D8A06C
:101760004006000E3F24D96E010E4020DA6E37C0CD
:1017700002F038C003F039C004F03AC005F03BC0B5
:1017800006F03CC007F03DC008F03EC009F00A0E6C
:101790000A6E000E0B6E000E0C6E000E0D6E000E2B
:1017A0000E6E000E0F6E000E106E000E116E23EC0A
:1017B0000EF002C027F003C028F004C029F005C0D5
:1017C0002AF006C02BF007C02CF008C02DF009C08D
:1017D0002EF027C014F029C015F0A1EC12F014501F
:1017E000300FDF6E3106D8A032063306D8A034069B
:1017F00037C002F038C003F039C004F03AC005F039
:101800003BC006F03CC007F03DC008F03EC009F008
:101810000A0E0A6E000E0B6E000E0C6E000E0D6EA0
:10182000000E0E6E000E0F6E000E106E000E116E8A
:10183000AAEC0CF002C037F003C038F004C039F055
:1018400005C03AF006C03BF007C03CF008C03DF0D0
:1018500009C03EF040BE35EF0CF0405008E13F04B7
:10186000D8A035EF0CF037EF0CF067EF0CF03750E5
:10187000381039103A103B103C103D103E10D8A4DF
:1018800044EF0CF046EF0CF0AEEF0BF032BE53EF2E
:101890000CF0325006E13104D8B051EF0CF053EFA8
:1018A0000CF0AEEF0BF034BE5EEF0CF0345008E1FC
:1018B0003304D8A05EEF0CF060EF0CF067EF0CF093
:1018C0005BB265EF0CF067EF0CF0AEEF0BF035504C
:1018D0003610D8A46EEF0CF070EF0CF077EF0CF030
:1018E0005BA475EF0CF077EF0CF095EF0CF03F0672
:1018F000D8A0400635503610D8A481EF0CF083EF05
:101900000CF089EF0CF0000E306E2B0E2F6E8DEF69
:101910000CF0000E306E2D0E2F6E000E3F24D96E8F
:10192000010E4020DA6E2FC0DFFF1DC012F01EC076
:1019300013F0000E3F24146E010E4020156E33C0CC
:1019400016F034C017F003EC10F012C01DF013C0F5
:101950001EF01200000E136E11BEB3EF0CF0B1EFCB
:101960000CF0C5EF0CF0111E101E0F1E0E1E0D1EEA
:101970000C1E0B1E0A6C000E0B220C220D220E22D6
:101980000F2210221122010E136E09BECCEF0CF0B3
:10199000CAEF0CF0DEEF0CF0091E081E071E061E33
:1019A000051E041E031E026C000E032204220522E3
:1019B0000622072208220922010E131A20EE14F033
:1019C000070EDE6AE806FDE20A500B100C100D103F
:1019D0000E100F1010101110D8B4F1EF0CF0F3EF3F
:1019E0000CF045EF0DF0010E126E01EF0DF0D890E6
:1019F0000A360B360C360D360E360F3610361136CB
:101A0000122A11AE06EF0DF008EF0DF0F7EF0CF013
:101A1000D8901436153616361736183619361A3643
:101A20001B360A50025C0B5003580C5004580D50E2
:101A300005580E5006580F500758105008581150AE
:101A40000958D8A026EF0DF028EF0DF039EF0DF072
:101A50000A50025E0B50035A0C50045A0D50055A9E
:101A60000E50065A0F50075A1050085A1150095A72
:101A70001480D890113210320F320E320D320C32E7
:101A80000B320A32122E08EF0DF01350D8B44BEF80
:101A90000DF04DEF0DF05DEF0DF01B1E1A1E191E1F
:101AA000181E171E161E151E146C000E1522162267
:101AB0001722182219221A221B2214C002F015C064
:101AC00003F016C004F017C005F018C006F019C0E6
:101AD00007F01AC008F01BC009F01200000E126EC9
:101AE000000E116E000E106E000E0F6E7AEF0DF0EC
:101AF000094A0A2A09C0F6FF0AC0F7FF000EF86E6D
:101B00000800F550200AD8B488EF0DF08AEF0DF0E8
:101B100078EF0DF0F70E0B6EFF0E0C6E09C0F6FF9E
:101B20000AC0F7FF000EF86E0800F5500D6E0E6A41
:101B30000B500D260C500E220E5009E1050E0D5CC7
:101B4000D8A0A5EF0DF0A7EF0DF078EF0DF0B1EFF5
:101B50000DF0000E106E010E0F6E094A0A2AEAEF10
:101B60000DF009C0F6FF0AC0F7FF000EF86E08007E
:101B7000F5500B6E0C6A0C50000AD8B4C2EF0DF091
:101B8000EAEF0DF00B502B0AD8B4ADEF0DF0060ABA
:101B9000D8B4A9EF0DF0EAEF0DF011C002F012C0B9
:101BA00003F0000E056E0A0E046E47EC13F009C038
:101BB000F6FF0AC0F7FF000EF86E0800F550025E4F
:101BC000000E035A300E0224116E000E0320126E16
:101BD000ADEF0DF0D00E0B6EFF0E0C6E09C0F6FFD0
:101BE0000AC0F7FF000EF86E0800F5500D6E0E6A81
:101BF0000B500D260C500E220E5009E10A0E0D5C02
:101C0000D8A005EF0EF007EF0EF0CDEF0DF00F505E
:101C10001010D8A40EEF0EF010EF0EF01EEF0EF025
:101C200011C00BF012C00CF00B1E0C1E0B4A0C2A3C
:101C30000BC009F00CC00AF022EF0EF011C009F041
:101C400012C00AF01200000E136E09BE2CEF0EF047
:101C50002AEF0EF03EEF0EF0091E081E071E061EAC
:101C6000051E041E031E026C000E03220422052220
:101C70000622072208220922010E136E11BE45EF2B
:101C80000EF043EF0EF055EF0EF0111E101E0F1E5A
:101C90000E1E0D1E0C1E0B1E0A6C000E0B220C22BB
:101CA0000D220E220F22102211220A500B100C10AE
:101CB0000D100E100F1010101110D8B462EF0EF0AE
:101CC00064EF0EF0ACEF0EF0010E126E72EF0EF03C
:101CD000D8900A360B360C360D360E360F361036C7
:101CE0001136122A11AE77EF0EF079EF0EF068EF91
:101CF0000EF00A50025C0B5003580C5004580D5063
:101D000005580E5006580F500758105008581150DB
:101D10000958D8A08EEF0EF090EF0EF0A0EF0EF065
:101D20000A50025E0B50035A0C50045A0D50055ACB
:101D30000E50065A0F50075A1050085A1150095A9F
:101D4000D890113210320F320E320D320C320B326B
:101D50000A32122E79EF0EF01350D8B4B2EF0EF013
:101D6000B4EF0EF0C4EF0EF0091E081E071E061E8B
:101D7000051E041E031E026C000E0322042205220F
:101D8000062207220822092202C002F003C003F043
:101D900004C004F005C005F006C006F007C007F057
:101DA00008C008F009C009F012000001AD6F850EEF
:101DB0000001626F000E636F010E646F0E0E656F9F
:101DC000ADC066F0676B7BC068F0696B7C516A6F71
:101DD0006B6B6ABF6B077D516C6F6D6B6CBF6D0772
:101DE00009EC12F0990E0001626F000E636F110E84
:101DF000646F0E0E656F7E51666F676B66BF670717
:101E00007FC068F0696B80C06AF081C06BF082C0EF
:101E10006CF06D6B09EC12F0000E036E0C0E2FECE3
:101E200013F0850E076E000E086E15EC13F0020E0F
:101E3000C1EC12F0990E076E000E086E15EC13F04F
:101E4000020E0001846FA00E836F920EE82EFED763
:101E5000832FFCD7842FFAD700F0000E036E010EFB
:101E60002FEC13F02A0E0001836F8D0EE82EFED7A3
:101E7000832FFCD700D0120004500510D8B443EFD4
:101E80000FF045EF0FF04EEF0FF004500510D8A4FF
:101E90004CEF0FF04EEF0FF053EF0FF00250D1EC7C
:101EA00013F0A0EF0FF020EE09F00450D9260550F2
:101EB000DA22DE50DE10D8B460EF0FF062EF0FF0E0
:101EC0007DEF0FF020EE09F00450D9260550DA22FC
:101ED00010EE03F00450E1260550E222DE50E65CED
:101EE000E650800A0A6EDE50800A0A58D8B07BEFAE
:101EF0000FF07DEF0FF0A0EF0FF020EE03F0045095
:101F0000D9260550DA22DECF06F0DDCF07F004C077
:101F1000D9FF05C0DAFFDECF08F0DDCF09F00650AB
:101F20000824D96E07500920DA6E02C0DFFF20EEC8
:101F300003F00450D9260550DA22DE2A000EDD22F5
:101F40001200000E076E05BEAAEF0FF0A8EF0FF00B
:101F5000B0EF0FF0046C051ED8B0052A010E076E15
:101F600003BEB7EF0FF0B5EF0FF0BDEF0FF0026C4F
:101F7000031ED8B0032A010E071A000E096E000EC8
:101F8000086E04500510D8B4C8EF0FF0CAEF0FF078
:101F9000F2EF0FF0010E066ED2EF0FF0D89004367C
:101FA0000536062A05AED7EF0FF0D9EF0FF0CEEFCA
:101FB0000FF0D890083609360450025C05500358DB
:101FC000D8A0E5EF0FF0E7EF0FF0ECEF0FF00450C3
:101FD000025E0550035A0880D89005320432062E5E
:101FE000D9EF0FF00750D8B4F8EF0FF0FAEF0FF079
:101FF000FEEF0FF0086C091ED8B0092A08C002F0E5
:1020000009C003F012005BA008EF10F00AEF10F017
:1020100014EF10F014C00BF015C00CF012C00DF04E
:1020200013C00EF07FEC12F017BE19EF10F01BEF8B
:1020300010F021EF10F016C01BF017C01CF025EFB8
:1020400010F0000E1C6E000E1B6E000E1A6E000EBD
:10205000196E37EF10F0000E036E200E026E12C0E4
:1020600004F013C005F03CEC0FF0194A1A2A1B507B
:10207000195C1A50800A186E1C50800A1858D8A093
:1020800044EF10F046EF10F02BEF10F05BB04BEF89
:1020900010F04DEF10F057EF10F014C00BF015C01A
:1020A0000CF012C00DF013C00EF07FEC12F014C053
:1020B00002F015C003F0FAEC12F01B500224126E6D
:1020C0001C500320136E12000C6E0C04D8A46BEF8E
:1020D00010F06DEF10F071EF10F00D0E116E73EF48
:1020E00010F00C0E116E040E0B6479EF10F07BEF04
:1020F00010F086EF10F00B0E0B6081EF10F083EF05
:1021000010F086EF10F07C9E9BEF10F00E0E0B642B
:102110008CEF10F08EEF10F09BEF10F0170E0B60AD
:1021200094EF10F096EF10F09BEF10F07C8E0AC049
:102130000FF00BC010F00D500F24026E036A03362F
:10214000000E056E020E046EA1EC0FF002C012F03C
:1021500003C013F00E501024026E036A0336000E03
:10216000056E020E046EA1EC0FF0135009E1650E2E
:10217000125CD8A0BEEF10F0C0EF10F0C3EF10F06B
:1021800012500A5C0A6E120082968294859685929D
:10219000839C83947A967A947D967D927B9C7B94A3
:1021A000D50EE82EFED700F0030E47EC11F0D50E49
:1021B000E82EFED700F0000E036E280E2FEC13F071
:1021C000D50EE82EFED700F0000E036E280E2FEC81
:1021D00013F0D50EE82EFED700F0000E036E010EB0
:1021E0002FEC13F0D50EE82EFED700F0000E036E94
:1021F000060E2FEC13F02A0E076E8E0EE82EFED779
:10220000072EFCD7000E036E0E0E2FEC13F02A0ED5
:10221000076E8E0EE82EFED7072EFCD7120002A006
:1022200014EF11F016EF11F019EF11F07F801AEF93
:1022300011F07F9002A21FEF11F021EF11F024EFB7
:1022400011F07F8225EF11F07F9202A42AEF11F0A6
:102250002CEF11F02FEF11F0798430EF11F0799419
:1022600002A635EF11F037EF11F03AEF11F07E8C46
:102270003BEF11F07E9C02A840EF11F042EF11F00D
:1022800045EF11F0798846EF11F079981200026E4F
:1022900002A04DEF11F04FEF11F052EF11F07A86DE
:1022A00053EF11F07A9602A258EF11F05AEF11F0A5
:1022B0005DEF11F07A845EEF11F07A9402A463EF7F
:1022C00011F065EF11F068EF11F07D8669EF11F004
:1022D0007D9602A66EEF11F070EF11F073EF11F022
:1022E0007D8274EF11F07D92B6EC13F01A0EE82E99
:1022F000FED700D0120057C060F058C061F0000E49
:102300000001F66F000EF56F99EF11F055C041F026
:1023100056C042F0600E436E000E446E59C045F048
:102320005AC046F081EC09F041500001F5274250B7
:10233000F62360C0F6FF61C0F7FF000EF86E0800DC
:10234000F5500009D8A4A7EF11F0A9EF11F086EF1E
:1023500011F0F5C055F0F6C056F01200045005100B
:10236000D8B4B5EF11F0B7EF11F0DBEF11F0010EBB
:10237000066EBFEF11F0D89004360536062A05AE7A
:10238000C4EF11F0C6EF11F0BBEF11F00450025C86
:1023900005500358D8A0CFEF11F0D1EF11F0D5EFD1
:1023A00011F00450025E0550035AD89005320432F1
:1023B000062EC6EF11F002C002F003C003F01200B7
:1023C000076E0650D8B4E7EF11F0E9EF11F0F4EF23
:1023D00011F0060E0660EFEF11F0F1EF11F0F4EFDF
:1023E00011F07C9E08EF12F0960E0760FAEF11F0E4
:1023F000FCEF11F0FFEF11F07C9E08EF12F0960E4B
:10240000076405EF12F007EF12F008EF12F07C8E70
:102410001200660E00016E6F000E6F6F62C070F0EA
:1024200063C071F0000E746F000E736F000E7A6F50
:10243000000E796F700E556E000E566E64C057F028
:1024400065C058F06E0E596E000E5A6E7BEC11F09E
:10245000000173516225D96E74516321DA6E000E4A
:10246000DF6E1200010E086E200E02180310D8B4A1
:102470003CEF12F03EEF12F057EF12F0F70E046E41
:10248000FF0E056E02C006F003C007F004500626DA
:1024900005500722075009E1050E065CD8A053EF4E
:1024A00012F055EF12F057EF12F0000E086E08C050
:1024B00002F0036A1200540EF66E270EF76E000E3D
:1024C000F86E00EEDDF010EE18F00900F5CFEEFF2B
:1024D000E550E150FAE101EE00F0200EEE6AE80668
:1024E000FDE10001FA6BF96BF86BF76BF66BF56BBE
:1024F0005C6A5B6A5D905D92000113EF07F0000E6D
:10250000116E000E106E90EF12F00FC002F0036A11
:102510000DC004F00EC005F03CEC0FF0104A112A7B
:1025200010500B24D96E11500C20DA6EDF500F6E54
:102530000F50D8A49EEF12F0A0EF12F085EF12F02A
:10254000120015BEAEEF12F0155006E11404D8B01B
:10255000ACEF12F0AEEF12F0BCEF12F014C016F0B8
:1025600015C017F0161E171E164A172A16C014F0AB
:1025700017C015F0C0EF12F014C014F015C015F01C
:102580001200076E0704D8A4C8EF12F0CAEF12F0C9
:10259000CFEF12F0000E036E800E2FEC13F0020E40
:1025A0000718D8A4D6EF12F0D8EF12F0DDEF12F032
:1025B000000E036EC00E2FEC13F01200D00E046E4E
:1025C000FF0E056E02C006F003C007F00450062699
:1025D0000550072207500AE10A0E065CD8A0F3EF67
:1025E00012F0F6EF12F0010EF7EF12F0000E026E8D
:1025F000036A120002C004F003C005F002EF13F0FA
:10260000024A032A02C0D9FF03C0DAFFDF50D8A470
:102610000CEF13F00EEF13F000EF13F00450025C18
:10262000026E05500358036E120022EF13F0010EE4
:10263000036E07C0D9FF08C0DAFFDF502FEC13F09C
:10264000074A082A07C0D9FF08C0DAFFDF50D8A41C
:102650002CEF13F02EEF13F017EF13F01200066EAD
:1026600003B002D07B9C01D07B8C0650F00B046E33
:1026700004380F0B47EC11F006500F0B056E055098
:1026800047EC11F0A00E00D0E82EFDD7120002504A
:102690000402F3CF06F0F4CF07F002500502F35026
:1026A000072603500402F350072606C002F007C0B5
:1026B00003F01200868E0E01D251F80B0309D26F7F
:1026C000D351F80B0509D36FD083D089D183C1ECE6
:1026D00013F00E01D08F1200849E819A8896879005
:1026E00087928194869C81987C9E8096799A7F902F
:1026F0007F9279947E9C79981200D6501F0B4009E6
:10270000D66ED688D650F00B0809D66ED5880B0E3B
:10271000D46EDB0ED36ED58E1200608060B093EF66
:1027200013F095EF13F08EEF13F064CF04F0056A09
:1027300004C002F005C003F0120081860E019287EA
:102740000F015899FC0E5817030E5F6F6094608854
:10275000608E12001F001C001F001E001F001E00C4
:102760001F001F001E001F001E001F007B842A0E7A
:10277000E82EFED700D07B941A0EE82EFED700D0AC
:102780001200F30E0E01C617C691C751E00B1B09CC
:10279000C76FC68F1200F28C0E01298B339BF28E0D
:0427A0001200120011
:020000040020DA
:10000000FF0FFF0FFF0FFF0FFF0FFF0FFF0FFF0F80
:020000040030CA
:0C000000AAFFFFFF9FFFFFFFFFFFFFFFB5
:00000001FF
